{
  "contractName": "iUseArchBtwERC20Token",
  "abi": [
    {
      "inputs": [],
      "stateMutability": "nonpayable",
      "type": "constructor"
    },
    {
      "anonymous": false,
      "inputs": [
        {
          "indexed": true,
          "internalType": "address",
          "name": "owner",
          "type": "address"
        },
        {
          "indexed": true,
          "internalType": "address",
          "name": "spender",
          "type": "address"
        },
        {
          "indexed": false,
          "internalType": "uint256",
          "name": "value",
          "type": "uint256"
        }
      ],
      "name": "Approval",
      "type": "event"
    },
    {
      "anonymous": false,
      "inputs": [
        {
          "indexed": true,
          "internalType": "address",
          "name": "from",
          "type": "address"
        },
        {
          "indexed": true,
          "internalType": "address",
          "name": "to",
          "type": "address"
        },
        {
          "indexed": false,
          "internalType": "uint256",
          "name": "value",
          "type": "uint256"
        }
      ],
      "name": "Transfer",
      "type": "event"
    },
    {
      "inputs": [
        {
          "internalType": "address",
          "name": "",
          "type": "address"
        },
        {
          "internalType": "address",
          "name": "",
          "type": "address"
        }
      ],
      "name": "allowance",
      "outputs": [
        {
          "internalType": "uint256",
          "name": "",
          "type": "uint256"
        }
      ],
      "stateMutability": "view",
      "type": "function",
      "constant": true
    },
    {
      "inputs": [
        {
          "internalType": "address",
          "name": "",
          "type": "address"
        }
      ],
      "name": "balanceOf",
      "outputs": [
        {
          "internalType": "uint256",
          "name": "",
          "type": "uint256"
        }
      ],
      "stateMutability": "view",
      "type": "function",
      "constant": true
    },
    {
      "inputs": [],
      "name": "decimals",
      "outputs": [
        {
          "internalType": "uint256",
          "name": "",
          "type": "uint256"
        }
      ],
      "stateMutability": "view",
      "type": "function",
      "constant": true
    },
    {
      "inputs": [],
      "name": "name",
      "outputs": [
        {
          "internalType": "string",
          "name": "",
          "type": "string"
        }
      ],
      "stateMutability": "view",
      "type": "function",
      "constant": true
    },
    {
      "inputs": [],
      "name": "symbol",
      "outputs": [
        {
          "internalType": "string",
          "name": "",
          "type": "string"
        }
      ],
      "stateMutability": "view",
      "type": "function",
      "constant": true
    },
    {
      "inputs": [],
      "name": "totalSupply",
      "outputs": [
        {
          "internalType": "uint256",
          "name": "",
          "type": "uint256"
        }
      ],
      "stateMutability": "view",
      "type": "function",
      "constant": true
    },
    {
      "inputs": [
        {
          "internalType": "address",
          "name": "recipient",
          "type": "address"
        },
        {
          "internalType": "uint256",
          "name": "amount",
          "type": "uint256"
        }
      ],
      "name": "transfer",
      "outputs": [
        {
          "internalType": "bool",
          "name": "",
          "type": "bool"
        }
      ],
      "stateMutability": "nonpayable",
      "type": "function"
    },
    {
      "inputs": [
        {
          "internalType": "address",
          "name": "spender",
          "type": "address"
        },
        {
          "internalType": "uint256",
          "name": "amount",
          "type": "uint256"
        }
      ],
      "name": "approve",
      "outputs": [
        {
          "internalType": "bool",
          "name": "",
          "type": "bool"
        }
      ],
      "stateMutability": "nonpayable",
      "type": "function"
    },
    {
      "inputs": [
        {
          "internalType": "address",
          "name": "sender",
          "type": "address"
        },
        {
          "internalType": "address",
          "name": "recipient",
          "type": "address"
        },
        {
          "internalType": "uint256",
          "name": "amount",
          "type": "uint256"
        }
      ],
      "name": "transferFrom",
      "outputs": [
        {
          "internalType": "bool",
          "name": "",
          "type": "bool"
        }
      ],
      "stateMutability": "nonpayable",
      "type": "function"
    },
    {
      "inputs": [
        {
          "internalType": "uint256",
          "name": "amount",
          "type": "uint256"
        }
      ],
      "name": "mint",
      "outputs": [],
      "stateMutability": "nonpayable",
      "type": "function"
    },
    {
      "inputs": [
        {
          "internalType": "uint256",
          "name": "amount",
          "type": "uint256"
        }
      ],
      "name": "burn",
      "outputs": [],
      "stateMutability": "nonpayable",
      "type": "function"
    }
  ],
  "bytecode": "0x60806040526040518060400160405280601481526020017f492055736520417263682042747720546f6b656e000000000000000000000000815250600390816200004a919062000383565b506040518060400160405280600481526020017f49554142000000000000000000000000000000000000000000000000000000008152506004908162000091919062000383565b506012600555348015620000a457600080fd5b506005546103e8620000b79190620005ed565b600081905550600054600160003373ffffffffffffffffffffffffffffffffffffffff1673ffffffffffffffffffffffffffffffffffffffff168152602001908152602001600020819055506200063e565b600081519050919050565b7f4e487b7100000000000000000000000000000000000000000000000000000000600052604160045260246000fd5b7f4e487b7100000000000000000000000000000000000000000000000000000000600052602260045260246000fd5b600060028204905060018216806200018b57607f821691505b602082108103620001a157620001a062000143565b5b50919050565b60008190508160005260206000209050919050565b60006020601f8301049050919050565b600082821b905092915050565b6000600883026200020b7fffffffffffffffffffffffffffffffffffffffffffffffffffffffffffffffff82620001cc565b620002178683620001cc565b95508019841693508086168417925050509392505050565b6000819050919050565b6000819050919050565b6000620002646200025e62000258846200022f565b62000239565b6200022f565b9050919050565b6000819050919050565b620002808362000243565b620002986200028f826200026b565b848454620001d9565b825550505050565b600090565b620002af620002a0565b620002bc81848462000275565b505050565b5b81811015620002e457620002d8600082620002a5565b600181019050620002c2565b5050565b601f8211156200033357620002fd81620001a7565b6200030884620001bc565b8101602085101562000318578190505b620003306200032785620001bc565b830182620002c1565b50505b505050565b600082821c905092915050565b6000620003586000198460080262000338565b1980831691505092915050565b600062000373838362000345565b9150826002028217905092915050565b6200038e8262000109565b67ffffffffffffffff811115620003aa57620003a962000114565b5b620003b6825462000172565b620003c3828285620002e8565b600060209050601f831160018114620003fb5760008415620003e6578287015190505b620003f2858262000365565b86555062000462565b601f1984166200040b86620001a7565b60005b8281101562000435578489015182556001820191506020850194506020810190506200040e565b8683101562000455578489015162000451601f89168262000345565b8355505b6001600288020188555050505b505050505050565b7f4e487b7100000000000000000000000000000000000000000000000000000000600052601160045260246000fd5b60008160011c9050919050565b6000808291508390505b6001851115620004f857808604811115620004d057620004cf6200046a565b5b6001851615620004e05780820291505b8081029050620004f08562000499565b9450620004b0565b94509492505050565b600082620005135760019050620005e6565b81620005235760009050620005e6565b81600181146200053c576002811462000547576200057d565b6001915050620005e6565b60ff8411156200055c576200055b6200046a565b5b8360020a9150848211156200057657620005756200046a565b5b50620005e6565b5060208310610133831016604e8410600b8410161715620005b75782820a905083811115620005b157620005b06200046a565b5b620005e6565b620005c68484846001620004a6565b92509050818404811115620005e057620005df6200046a565b5b81810290505b9392505050565b6000620005fa826200022f565b915062000607836200022f565b9250620006367fffffffffffffffffffffffffffffffffffffffffffffffffffffffffffffffff848462000501565b905092915050565b610d26806200064e6000396000f3fe608060405234801561001057600080fd5b50600436106100a95760003560e01c806342966c681161007157806342966c681461016857806370a082311461018457806395d89b41146101b4578063a0712d68146101d2578063a9059cbb146101ee578063dd62ed3e1461021e576100a9565b806306fdde03146100ae578063095ea7b3146100cc57806318160ddd146100fc57806323b872dd1461011a578063313ce5671461014a575b600080fd5b6100b661024e565b6040516100c391906109b1565b60405180910390f35b6100e660048036038101906100e19190610a6c565b6102dc565b6040516100f39190610ac7565b60405180910390f35b6101046103ce565b6040516101119190610af1565b60405180910390f35b610134600480360381019061012f9190610b0c565b6103d4565b6040516101419190610ac7565b60405180910390f35b610152610585565b60405161015f9190610af1565b60405180910390f35b610182600480360381019061017d9190610b5f565b61058b565b005b61019e60048036038101906101999190610b8c565b610662565b6040516101ab9190610af1565b60405180910390f35b6101bc61067a565b6040516101c991906109b1565b60405180910390f35b6101ec60048036038101906101e79190610b5f565b610708565b005b61020860048036038101906102039190610a6c565b6107df565b6040516102159190610ac7565b60405180910390f35b61023860048036038101906102339190610bb9565b6108fc565b6040516102459190610af1565b60405180910390f35b6003805461025b90610c28565b80601f016020809104026020016040519081016040528092919081815260200182805461028790610c28565b80156102d45780601f106102a9576101008083540402835291602001916102d4565b820191906000526020600020905b8154815290600101906020018083116102b757829003601f168201915b505050505081565b600081600260003373ffffffffffffffffffffffffffffffffffffffff1673ffffffffffffffffffffffffffffffffffffffff16815260200190815260200160002060008573ffffffffffffffffffffffffffffffffffffffff1673ffffffffffffffffffffffffffffffffffffffff168152602001908152602001600020819055508273ffffffffffffffffffffffffffffffffffffffff163373ffffffffffffffffffffffffffffffffffffffff167f8c5be1e5ebec7d5bd14f71427d1e84f3dd0314c0f7b2291e5b200ac8c7c3b925846040516103bc9190610af1565b60405180910390a36001905092915050565b60005481565b600081600260008673ffffffffffffffffffffffffffffffffffffffff1673ffffffffffffffffffffffffffffffffffffffff16815260200190815260200160002060003373ffffffffffffffffffffffffffffffffffffffff1673ffffffffffffffffffffffffffffffffffffffff16815260200190815260200160002060008282546104629190610c88565b9250508190555081600160008673ffffffffffffffffffffffffffffffffffffffff1673ffffffffffffffffffffffffffffffffffffffff16815260200190815260200160002060008282546104b89190610c88565b9250508190555081600160008573ffffffffffffffffffffffffffffffffffffffff1673ffffffffffffffffffffffffffffffffffffffff168152602001908152602001600020600082825461050e9190610cbc565b925050819055508273ffffffffffffffffffffffffffffffffffffffff168473ffffffffffffffffffffffffffffffffffffffff167fddf252ad1be2c89b69c2b068fc378daa952ba7f163c4a11628f55a4df523b3ef846040516105729190610af1565b60405180910390a3600190509392505050565b60055481565b80600160003373ffffffffffffffffffffffffffffffffffffffff1673ffffffffffffffffffffffffffffffffffffffff16815260200190815260200160002060008282546105da9190610c88565b92505081905550806000808282546105f29190610c88565b92505081905550600073ffffffffffffffffffffffffffffffffffffffff163373ffffffffffffffffffffffffffffffffffffffff167fddf252ad1be2c89b69c2b068fc378daa952ba7f163c4a11628f55a4df523b3ef836040516106579190610af1565b60405180910390a350565b60016020528060005260406000206000915090505481565b6004805461068790610c28565b80601f01602080910402602001604051908101604052809291908181526020018280546106b390610c28565b80156107005780601f106106d557610100808354040283529160200191610700565b820191906000526020600020905b8154815290600101906020018083116106e357829003601f168201915b505050505081565b80600160003373ffffffffffffffffffffffffffffffffffffffff1673ffffffffffffffffffffffffffffffffffffffff16815260200190815260200160002060008282546107579190610cbc565b925050819055508060008082825461076f9190610cbc565b925050819055503373ffffffffffffffffffffffffffffffffffffffff16600073ffffffffffffffffffffffffffffffffffffffff167fddf252ad1be2c89b69c2b068fc378daa952ba7f163c4a11628f55a4df523b3ef836040516107d49190610af1565b60405180910390a350565b600081600160003373ffffffffffffffffffffffffffffffffffffffff1673ffffffffffffffffffffffffffffffffffffffff16815260200190815260200160002060008282546108309190610c88565b9250508190555081600160008573ffffffffffffffffffffffffffffffffffffffff1673ffffffffffffffffffffffffffffffffffffffff16815260200190815260200160002060008282546108869190610cbc565b925050819055508273ffffffffffffffffffffffffffffffffffffffff163373ffffffffffffffffffffffffffffffffffffffff167fddf252ad1be2c89b69c2b068fc378daa952ba7f163c4a11628f55a4df523b3ef846040516108ea9190610af1565b60405180910390a36001905092915050565b6002602052816000526040600020602052806000526040600020600091509150505481565b600081519050919050565b600082825260208201905092915050565b60005b8381101561095b578082015181840152602081019050610940565b60008484015250505050565b6000601f19601f8301169050919050565b600061098382610921565b61098d818561092c565b935061099d81856020860161093d565b6109a681610967565b840191505092915050565b600060208201905081810360008301526109cb8184610978565b905092915050565b600080fd5b600073ffffffffffffffffffffffffffffffffffffffff82169050919050565b6000610a03826109d8565b9050919050565b610a13816109f8565b8114610a1e57600080fd5b50565b600081359050610a3081610a0a565b92915050565b6000819050919050565b610a4981610a36565b8114610a5457600080fd5b50565b600081359050610a6681610a40565b92915050565b60008060408385031215610a8357610a826109d3565b5b6000610a9185828601610a21565b9250506020610aa285828601610a57565b9150509250929050565b60008115159050919050565b610ac181610aac565b82525050565b6000602082019050610adc6000830184610ab8565b92915050565b610aeb81610a36565b82525050565b6000602082019050610b066000830184610ae2565b92915050565b600080600060608486031215610b2557610b246109d3565b5b6000610b3386828701610a21565b9350506020610b4486828701610a21565b9250506040610b5586828701610a57565b9150509250925092565b600060208284031215610b7557610b746109d3565b5b6000610b8384828501610a57565b91505092915050565b600060208284031215610ba257610ba16109d3565b5b6000610bb084828501610a21565b91505092915050565b60008060408385031215610bd057610bcf6109d3565b5b6000610bde85828601610a21565b9250506020610bef85828601610a21565b9150509250929050565b7f4e487b7100000000000000000000000000000000000000000000000000000000600052602260045260246000fd5b60006002820490506001821680610c4057607f821691505b602082108103610c5357610c52610bf9565b5b50919050565b7f4e487b7100000000000000000000000000000000000000000000000000000000600052601160045260246000fd5b6000610c9382610a36565b9150610c9e83610a36565b9250828203905081811115610cb657610cb5610c59565b5b92915050565b6000610cc782610a36565b9150610cd283610a36565b9250828201905080821115610cea57610ce9610c59565b5b9291505056fea2646970667358221220c928856ce560bd266c2703b773eec9f83b13be0f0f450b9b99c3d636f831877264736f6c63430008110033",
  "immutableReferences": {},
  "source": "// SPDX-License-Identifier: MIT\npragma solidity ^0.8.16;\n\nimport \"./IERC20.sol\";\n\ncontract iUseArchBtwERC20Token is IERC20 {\n    uint256 public totalSupply;\n    mapping(address => uint256) public balanceOf;\n    mapping(address => mapping(address => uint256)) public allowance;\n    string public name = \"I Use Arch Btw Token\";\n    string public symbol = \"IUAB\";\n    uint256 public decimals = 18;\n\nconstructor() {\n    totalSupply = 1000 ** decimals;\n    balanceOf[msg.sender] = totalSupply;\n}\n\n    function transfer(address recipient, uint256 amount) external returns (bool) {\n        balanceOf[msg.sender] -= amount;\n        balanceOf[recipient] += amount;\n        emit Transfer(msg.sender, recipient, amount);\n        return true;\n    }\n\n    function approve(address spender, uint256 amount) external returns (bool) {\n        allowance[msg.sender][spender] = amount;\n        emit Approval(msg.sender, spender, amount);\n        return true;\n    }\n\n    function transferFrom(\n        address sender,\n        address recipient,\n        uint256 amount\n    ) external returns (bool) {\n        allowance[sender][msg.sender] -= amount;\n        balanceOf[sender] -= amount;\n        balanceOf[recipient] += amount;\n        emit Transfer(sender, recipient, amount);\n        return true;\n    }\n\n    function mint(uint256 amount) external {\n        balanceOf[msg.sender] += amount;\n        totalSupply += amount;\n        emit Transfer(address(0), msg.sender, amount);\n    }\n\n    function burn(uint256 amount) external {\n        balanceOf[msg.sender] -= amount;\n        totalSupply -= amount;\n        emit Transfer(msg.sender, address(0), amount);\n    }\n}\n",
  "sourcePath": "/home/allinone/Proga/Solidity/erc20/contracts/iUseArchBtwERC20Token.sol",
  "compiler": {
    "name": "solc",
    "version": "0.8.17+commit.8df45f5f.Emscripten.clang"
  },
  "schemaVersion": "3.4.9",
  "updatedAt": "2022-09-23T09:47:40.129Z",
  "networkType": "ethereum",
  "devdoc": {
    "kind": "dev",
    "methods": {},
    "version": 1
  },
  "userdoc": {
    "kind": "user",
    "methods": {},
    "version": 1
  }
}